{
  "_format": "hh3-artifact-1",
  "contractName": "DocumentVerification",
  "sourceName": "contracts/DocumentVerification.sol",
  "abi": [
    {
      "inputs": [
        {
          "internalType": "address",
          "name": "admin",
          "type": "address"
        }
      ],
      "stateMutability": "nonpayable",
      "type": "constructor"
    },
    {
      "inputs": [],
      "name": "AccessControlBadConfirmation",
      "type": "error"
    },
    {
      "inputs": [
        {
          "internalType": "address",
          "name": "account",
          "type": "address"
        },
        {
          "internalType": "bytes32",
          "name": "neededRole",
          "type": "bytes32"
        }
      ],
      "name": "AccessControlUnauthorizedAccount",
      "type": "error"
    },
    {
      "inputs": [
        {
          "internalType": "bytes32",
          "name": "hash",
          "type": "bytes32"
        }
      ],
      "name": "AlreadyRegistered",
      "type": "error"
    },
    {
      "inputs": [
        {
          "internalType": "bytes32",
          "name": "hash",
          "type": "bytes32"
        }
      ],
      "name": "AlreadyRevoked",
      "type": "error"
    },
    {
      "inputs": [],
      "name": "BadSignature",
      "type": "error"
    },
    {
      "inputs": [],
      "name": "ECDSAInvalidSignature",
      "type": "error"
    },
    {
      "inputs": [
        {
          "internalType": "uint256",
          "name": "length",
          "type": "uint256"
        }
      ],
      "name": "ECDSAInvalidSignatureLength",
      "type": "error"
    },
    {
      "inputs": [
        {
          "internalType": "bytes32",
          "name": "s",
          "type": "bytes32"
        }
      ],
      "name": "ECDSAInvalidSignatureS",
      "type": "error"
    },
    {
      "inputs": [],
      "name": "EnforcedPause",
      "type": "error"
    },
    {
      "inputs": [],
      "name": "ExpectedPause",
      "type": "error"
    },
    {
      "inputs": [],
      "name": "NotIssuer",
      "type": "error"
    },
    {
      "inputs": [
        {
          "internalType": "bytes32",
          "name": "hash",
          "type": "bytes32"
        }
      ],
      "name": "NotRegistered",
      "type": "error"
    },
    {
      "inputs": [],
      "name": "ReentrancyGuardReentrantCall",
      "type": "error"
    },
    {
      "inputs": [],
      "name": "ZeroHash",
      "type": "error"
    },
    {
      "anonymous": false,
      "inputs": [
        {
          "indexed": true,
          "internalType": "bytes32",
          "name": "hash",
          "type": "bytes32"
        },
        {
          "indexed": true,
          "internalType": "address",
          "name": "issuer",
          "type": "address"
        },
        {
          "indexed": true,
          "internalType": "address",
          "name": "subject",
          "type": "address"
        },
        {
          "indexed": false,
          "internalType": "string",
          "name": "uriHint",
          "type": "string"
        }
      ],
      "name": "DocumentRegistered",
      "type": "event"
    },
    {
      "anonymous": false,
      "inputs": [
        {
          "indexed": true,
          "internalType": "bytes32",
          "name": "hash",
          "type": "bytes32"
        },
        {
          "indexed": true,
          "internalType": "address",
          "name": "issuer",
          "type": "address"
        },
        {
          "indexed": true,
          "internalType": "address",
          "name": "subject",
          "type": "address"
        },
        {
          "indexed": false,
          "internalType": "string",
          "name": "uriHint",
          "type": "string"
        },
        {
          "indexed": false,
          "internalType": "bytes",
          "name": "signature",
          "type": "bytes"
        }
      ],
      "name": "DocumentRegisteredSigned",
      "type": "event"
    },
    {
      "anonymous": false,
      "inputs": [
        {
          "indexed": true,
          "internalType": "bytes32",
          "name": "hash",
          "type": "bytes32"
        },
        {
          "indexed": true,
          "internalType": "address",
          "name": "revoker",
          "type": "address"
        },
        {
          "indexed": false,
          "internalType": "string",
          "name": "reason",
          "type": "string"
        }
      ],
      "name": "DocumentRevoked",
      "type": "event"
    },
    {
      "anonymous": false,
      "inputs": [
        {
          "indexed": false,
          "internalType": "address",
          "name": "account",
          "type": "address"
        }
      ],
      "name": "Paused",
      "type": "event"
    },
    {
      "anonymous": false,
      "inputs": [
        {
          "indexed": true,
          "internalType": "bytes32",
          "name": "role",
          "type": "bytes32"
        },
        {
          "indexed": true,
          "internalType": "bytes32",
          "name": "previousAdminRole",
          "type": "bytes32"
        },
        {
          "indexed": true,
          "internalType": "bytes32",
          "name": "newAdminRole",
          "type": "bytes32"
        }
      ],
      "name": "RoleAdminChanged",
      "type": "event"
    },
    {
      "anonymous": false,
      "inputs": [
        {
          "indexed": true,
          "internalType": "bytes32",
          "name": "role",
          "type": "bytes32"
        },
        {
          "indexed": true,
          "internalType": "address",
          "name": "account",
          "type": "address"
        },
        {
          "indexed": true,
          "internalType": "address",
          "name": "sender",
          "type": "address"
        }
      ],
      "name": "RoleGranted",
      "type": "event"
    },
    {
      "anonymous": false,
      "inputs": [
        {
          "indexed": true,
          "internalType": "bytes32",
          "name": "role",
          "type": "bytes32"
        },
        {
          "indexed": true,
          "internalType": "address",
          "name": "account",
          "type": "address"
        },
        {
          "indexed": true,
          "internalType": "address",
          "name": "sender",
          "type": "address"
        }
      ],
      "name": "RoleRevoked",
      "type": "event"
    },
    {
      "anonymous": false,
      "inputs": [
        {
          "indexed": false,
          "internalType": "address",
          "name": "account",
          "type": "address"
        }
      ],
      "name": "Unpaused",
      "type": "event"
    },
    {
      "inputs": [],
      "name": "DEFAULT_ADMIN_ROLE",
      "outputs": [
        {
          "internalType": "bytes32",
          "name": "",
          "type": "bytes32"
        }
      ],
      "stateMutability": "view",
      "type": "function"
    },
    {
      "inputs": [],
      "name": "ISSUER_ROLE",
      "outputs": [
        {
          "internalType": "bytes32",
          "name": "",
          "type": "bytes32"
        }
      ],
      "stateMutability": "view",
      "type": "function"
    },
    {
      "inputs": [],
      "name": "PAUSER_ROLE",
      "outputs": [
        {
          "internalType": "bytes32",
          "name": "",
          "type": "bytes32"
        }
      ],
      "stateMutability": "view",
      "type": "function"
    },
    {
      "inputs": [
        {
          "internalType": "bytes32",
          "name": "hash",
          "type": "bytes32"
        },
        {
          "internalType": "address",
          "name": "subject",
          "type": "address"
        }
      ],
      "name": "computeDigest",
      "outputs": [
        {
          "internalType": "bytes32",
          "name": "",
          "type": "bytes32"
        }
      ],
      "stateMutability": "view",
      "type": "function"
    },
    {
      "inputs": [
        {
          "internalType": "bytes32",
          "name": "hash",
          "type": "bytes32"
        }
      ],
      "name": "get",
      "outputs": [
        {
          "components": [
            {
              "internalType": "address",
              "name": "issuer",
              "type": "address"
            },
            {
              "internalType": "address",
              "name": "subject",
              "type": "address"
            },
            {
              "internalType": "uint64",
              "name": "issuedAt",
              "type": "uint64"
            },
            {
              "internalType": "bool",
              "name": "revoked",
              "type": "bool"
            }
          ],
          "internalType": "struct DocumentVerification.Record",
          "name": "",
          "type": "tuple"
        }
      ],
      "stateMutability": "view",
      "type": "function"
    },
    {
      "inputs": [
        {
          "internalType": "bytes32",
          "name": "role",
          "type": "bytes32"
        }
      ],
      "name": "getRoleAdmin",
      "outputs": [
        {
          "internalType": "bytes32",
          "name": "",
          "type": "bytes32"
        }
      ],
      "stateMutability": "view",
      "type": "function"
    },
    {
      "inputs": [
        {
          "internalType": "bytes32",
          "name": "role",
          "type": "bytes32"
        },
        {
          "internalType": "address",
          "name": "account",
          "type": "address"
        }
      ],
      "name": "grantRole",
      "outputs": [],
      "stateMutability": "nonpayable",
      "type": "function"
    },
    {
      "inputs": [
        {
          "internalType": "bytes32",
          "name": "role",
          "type": "bytes32"
        },
        {
          "internalType": "address",
          "name": "account",
          "type": "address"
        }
      ],
      "name": "hasRole",
      "outputs": [
        {
          "internalType": "bool",
          "name": "",
          "type": "bool"
        }
      ],
      "stateMutability": "view",
      "type": "function"
    },
    {
      "inputs": [
        {
          "internalType": "bytes32",
          "name": "hash",
          "type": "bytes32"
        }
      ],
      "name": "isRegistered",
      "outputs": [
        {
          "internalType": "bool",
          "name": "",
          "type": "bool"
        }
      ],
      "stateMutability": "view",
      "type": "function"
    },
    {
      "inputs": [],
      "name": "pause",
      "outputs": [],
      "stateMutability": "nonpayable",
      "type": "function"
    },
    {
      "inputs": [],
      "name": "paused",
      "outputs": [
        {
          "internalType": "bool",
          "name": "",
          "type": "bool"
        }
      ],
      "stateMutability": "view",
      "type": "function"
    },
    {
      "inputs": [
        {
          "internalType": "bytes32",
          "name": "hash",
          "type": "bytes32"
        },
        {
          "internalType": "address",
          "name": "subject",
          "type": "address"
        },
        {
          "internalType": "string",
          "name": "uriHint",
          "type": "string"
        }
      ],
      "name": "register",
      "outputs": [],
      "stateMutability": "nonpayable",
      "type": "function"
    },
    {
      "inputs": [
        {
          "internalType": "bytes32",
          "name": "hash",
          "type": "bytes32"
        },
        {
          "internalType": "address",
          "name": "subject",
          "type": "address"
        },
        {
          "internalType": "string",
          "name": "uriHint",
          "type": "string"
        },
        {
          "internalType": "bytes",
          "name": "signature",
          "type": "bytes"
        }
      ],
      "name": "registerSigned",
      "outputs": [],
      "stateMutability": "nonpayable",
      "type": "function"
    },
    {
      "inputs": [
        {
          "internalType": "bytes32",
          "name": "role",
          "type": "bytes32"
        },
        {
          "internalType": "address",
          "name": "callerConfirmation",
          "type": "address"
        }
      ],
      "name": "renounceRole",
      "outputs": [],
      "stateMutability": "nonpayable",
      "type": "function"
    },
    {
      "inputs": [
        {
          "internalType": "bytes32",
          "name": "hash",
          "type": "bytes32"
        },
        {
          "internalType": "string",
          "name": "reason",
          "type": "string"
        }
      ],
      "name": "revoke",
      "outputs": [],
      "stateMutability": "nonpayable",
      "type": "function"
    },
    {
      "inputs": [
        {
          "internalType": "bytes32",
          "name": "role",
          "type": "bytes32"
        },
        {
          "internalType": "address",
          "name": "account",
          "type": "address"
        }
      ],
      "name": "revokeRole",
      "outputs": [],
      "stateMutability": "nonpayable",
      "type": "function"
    },
    {
      "inputs": [
        {
          "internalType": "bytes4",
          "name": "interfaceId",
          "type": "bytes4"
        }
      ],
      "name": "supportsInterface",
      "outputs": [
        {
          "internalType": "bool",
          "name": "",
          "type": "bool"
        }
      ],
      "stateMutability": "view",
      "type": "function"
    },
    {
      "inputs": [],
      "name": "unpause",
      "outputs": [],
      "stateMutability": "nonpayable",
      "type": "function"
    }
  ],
  "bytecode": "0x608060405234801562000010575f80fd5b506040516200134438038062001344833981016040819052620000339162000152565b6001600255620000445f82620000a6565b50620000717f65d7a28e3265b37a6474929f336521b332c1681b933f6cb9f3376673440d862a82620000a6565b506200009e7f114e74f6ea3bd819998f78687bfcb11b140da08e9b7d222fa9c1f1ba1f2aa12282620000a6565b505062000181565b5f828152602081815260408083206001600160a01b038516845290915281205460ff1662000149575f838152602081815260408083206001600160a01b03861684529091529020805460ff19166001179055620001003390565b6001600160a01b0316826001600160a01b0316847f2f8788117e7eff1d82e926ec794901d17c78024a50270940304540a733656f0d60405160405180910390a45060016200014c565b505f5b92915050565b5f6020828403121562000163575f80fd5b81516001600160a01b03811681146200017a575f80fd5b9392505050565b6111b5806200018f5f395ff3fe608060405234801561000f575f80fd5b5060043610610111575f3560e01c806382aefa241161009e57806391d148541161006e57806391d148541461031e578063a217fddf14610331578063cf6c459614610338578063d547741f1461034b578063e63ab1e91461035e575f80fd5b806382aefa24146101f85780638456cb591461021f578063895ef151146102275780638eaa6ac01461023a575f80fd5b80632f2ff15d116100e45780632f2ff15d146101ac57806336568abe146101bf5780633f4ba83a146101d25780634a6969ef146101da5780635c975abb146101ed575f80fd5b806301ffc9a71461011557806308ccbc941461013d578063248a9ca31461015257806327258b2214610182575b5f80fd5b610128610123366004610ece565b610385565b60405190151581526020015b60405180910390f35b61015061014b366004610f41565b6103bb565b005b610174610160366004610f89565b5f9081526020819052604090206001015490565b604051908152602001610134565b610128610190366004610f89565b5f908152600360205260409020546001600160a01b0316151590565b6101506101ba366004610fbb565b6104c8565b6101506101cd366004610fbb565b6104f2565b61015061052a565b6101506101e8366004610fe5565b61055f565b60015460ff16610128565b6101747f114e74f6ea3bd819998f78687bfcb11b140da08e9b7d222fa9c1f1ba1f2aa12281565b61015061085f565b610174610235366004610fbb565b610891565b6102d1610248366004610f89565b604080516080810182525f808252602082018190529181018290526060810191909152505f90815260036020908152604091829020825160808101845281546001600160a01b03908116825260019092015491821692810192909252600160a01b810467ffffffffffffffff1692820192909252600160e01b90910460ff161515606082015290565b604051610134919081516001600160a01b0390811682526020808401519091169082015260408083015167ffffffffffffffff169082015260609182015115159181019190915260800190565b61012861032c366004610fbb565b6108e9565b6101745f81565b610150610346366004611069565b610911565b610150610359366004610fbb565b610a7c565b6101747f65d7a28e3265b37a6474929f336521b332c1681b933f6cb9f3376673440d862a81565b5f6001600160e01b03198216637965db0b60e01b14806103b557506301ffc9a760e01b6001600160e01b03198316145b92915050565b6103c3610aa0565b5f83815260036020526040902080546001600160a01b031661040057604051634660068b60e11b8152600481018590526024015b60405180910390fd5b6001810154600160e01b900460ff1615610430576040516390315de160e01b8152600481018590526024016103f7565b80546001600160a01b03163314801590610451575061044f5f336108e9565b155b1561046f576040516354ec506360e01b815260040160405180910390fd5b60018101805460ff60e01b1916600160e01b179055604051339085907f664cf7d0751e82eefc46ed717a1ab228d0287a6acf6767abcd9532b4f5cafb5b906104ba90879087906110e7565b60405180910390a350505050565b5f828152602081905260409020600101546104e281610ac6565b6104ec8383610ad0565b50505050565b6001600160a01b038116331461051b5760405163334bd91960e11b815260040160405180910390fd5b6105258282610b5f565b505050565b7f65d7a28e3265b37a6474929f336521b332c1681b933f6cb9f3376673440d862a61055481610ac6565b61055c610bc8565b50565b610567610aa0565b61056f610c1a565b8561058d5760405163f1ae58d560e01b815260040160405180910390fd5b5f868152600360205260409020546001600160a01b0316156105c557604051633be57b3960e11b8152600481018790526024016103f7565b5f7fd4fee0343288ad66d3426580123f52884bda4ce68c6a8ae3b5a5939f97365087878730466040516020016105ff959493929190611102565b6040516020818303038152906040528051906020012090505f61064e827f19457468657265756d205369676e6564204d6573736167653a0a3332000000005f908152601c91909152603c902090565b90505f6106908286868080601f0160208091040260200160405190810160405280939291908181526020018383808284375f92019190915250610c4292505050565b90506001600160a01b0381166106b957604051635cd5d23360e01b815260040160405180910390fd5b6106e37f114e74f6ea3bd819998f78687bfcb11b140da08e9b7d222fa9c1f1ba1f2aa122826108e9565b610700576040516354ec506360e01b815260040160405180910390fd5b6040518060800160405280826001600160a01b03168152602001896001600160a01b031681526020014267ffffffffffffffff1681526020015f151581525060035f8b81526020019081526020015f205f820151815f015f6101000a8154816001600160a01b0302191690836001600160a01b031602179055506020820151816001015f6101000a8154816001600160a01b0302191690836001600160a01b0316021790555060408201518160010160146101000a81548167ffffffffffffffff021916908367ffffffffffffffff160217905550606082015181600101601c6101000a81548160ff021916908315150217905550905050876001600160a01b0316816001600160a01b03168a7f47850e3c027a08196c21ba17b9b17bf5f45aedebcb07a55e300101f3150eb6538a8a8a8a604051610842949392919061113a565b60405180910390a45050506108576001600255565b505050505050565b7f65d7a28e3265b37a6474929f336521b332c1681b933f6cb9f3376673440d862a61088981610ac6565b61055c610c6a565b5f7fd4fee0343288ad66d3426580123f52884bda4ce68c6a8ae3b5a5939f97365087838330466040516020016108cb959493929190611102565b60405160208183030381529060405280519060200120905092915050565b5f918252602082815260408084206001600160a01b0393909316845291905290205460ff1690565b610919610aa0565b7f114e74f6ea3bd819998f78687bfcb11b140da08e9b7d222fa9c1f1ba1f2aa12261094381610ac6565b846109615760405163f1ae58d560e01b815260040160405180910390fd5b5f858152600360205260409020546001600160a01b03161561099957604051633be57b3960e11b8152600481018690526024016103f7565b60408051608081018252338082526001600160a01b03878116602080850182815267ffffffffffffffff4281168789019081525f606089018181528f82526003909552899020975188549087166001600160a01b031990911617885591516001979097018054925193511515600160e01b0260ff60e01b1994909216600160a01b026001600160e01b031990931697909516969096171716939093179055915190919087907f353a30c5396183563a2f5d2d677e260a2c03a7744c9c250f0fb1a46788a8145590610a6d90889088906110e7565b60405180910390a45050505050565b5f82815260208190526040902060010154610a9681610ac6565b6104ec8383610b5f565b60015460ff1615610ac45760405163d93c066560e01b815260040160405180910390fd5b565b61055c8133610ca5565b5f610adb83836108e9565b610b58575f838152602081815260408083206001600160a01b03861684529091529020805460ff19166001179055610b103390565b6001600160a01b0316826001600160a01b0316847f2f8788117e7eff1d82e926ec794901d17c78024a50270940304540a733656f0d60405160405180910390a45060016103b5565b505f6103b5565b5f610b6a83836108e9565b15610b58575f838152602081815260408083206001600160a01b0386168085529252808320805460ff1916905551339286917ff6391f5c32d9c69d2a47ea670b442974b53935d1edc7fd64eb21e047a839171b9190a45060016103b5565b610bd0610ce2565b6001805460ff191690557f5db9ee0a495bf2e6ff9c91a7834c1ba4fdd244a5e8aa4e537bd38aeae4b073aa335b6040516001600160a01b03909116815260200160405180910390a1565b6002805403610c3c57604051633ee5aeb560e01b815260040160405180910390fd5b60028055565b5f805f80610c508686610d05565b925092509250610c608282610d4e565b5090949350505050565b610c72610aa0565b6001805460ff1916811790557f62e78cea01bee320cd4e420270b5ea74000d11b0c9f74754ebdbfc544b05a25833610bfd565b610caf82826108e9565b610cde5760405163e2517d3f60e01b81526001600160a01b0382166004820152602481018390526044016103f7565b5050565b60015460ff16610ac457604051638dfc202b60e01b815260040160405180910390fd5b5f805f8351604103610d3c576020840151604085015160608601515f1a610d2e88828585610e06565b955095509550505050610d47565b505081515f91506002905b9250925092565b5f826003811115610d6157610d6161116b565b03610d6a575050565b6001826003811115610d7e57610d7e61116b565b03610d9c5760405163f645eedf60e01b815260040160405180910390fd5b6002826003811115610db057610db061116b565b03610dd15760405163fce698f760e01b8152600481018290526024016103f7565b6003826003811115610de557610de561116b565b03610cde576040516335e2f38360e21b8152600481018290526024016103f7565b5f80807f7fffffffffffffffffffffffffffffff5d576e7357a4501ddfe92f46681b20a0841115610e3f57505f91506003905082610ec4565b604080515f808252602082018084528a905260ff891692820192909252606081018790526080810186905260019060a0016020604051602081039080840390855afa158015610e90573d5f803e3d5ffd5b5050604051601f1901519150506001600160a01b038116610ebb57505f925060019150829050610ec4565b92505f91508190505b9450945094915050565b5f60208284031215610ede575f80fd5b81356001600160e01b031981168114610ef5575f80fd5b9392505050565b5f8083601f840112610f0c575f80fd5b50813567ffffffffffffffff811115610f23575f80fd5b602083019150836020828501011115610f3a575f80fd5b9250929050565b5f805f60408486031215610f53575f80fd5b83359250602084013567ffffffffffffffff811115610f70575f80fd5b610f7c86828701610efc565b9497909650939450505050565b5f60208284031215610f99575f80fd5b5035919050565b80356001600160a01b0381168114610fb6575f80fd5b919050565b5f8060408385031215610fcc575f80fd5b82359150610fdc60208401610fa0565b90509250929050565b5f805f805f8060808789031215610ffa575f80fd5b8635955061100a60208801610fa0565b9450604087013567ffffffffffffffff80821115611026575f80fd5b6110328a838b01610efc565b9096509450606089013591508082111561104a575f80fd5b5061105789828a01610efc565b979a9699509497509295939492505050565b5f805f806060858703121561107c575f80fd5b8435935061108c60208601610fa0565b9250604085013567ffffffffffffffff8111156110a7575f80fd5b6110b387828801610efc565b95989497509550505050565b81835281816020850137505f828201602090810191909152601f909101601f19169091010190565b602081525f6110fa6020830184866110bf565b949350505050565b94855260208501939093526bffffffffffffffffffffffff19606092831b81166040860152911b166054830152606882015260880190565b604081525f61114d6040830186886110bf565b82810360208401526111608185876110bf565b979650505050505050565b634e487b7160e01b5f52602160045260245ffdfea2646970667358221220903a0171adcd3177cea29ad849e88d7fb9920b21361e2c1ecac2a1e1b7e5311a64736f6c63430008180033",
  "linkReferences": {},
  "deployedLinkReferences": {},
  "immutableReferences": {},
  "inputSourceName": "project/contracts/DocumentVerification.sol",
  "buildInfoId": "solc-0_8_24-cb221a46f4f28f39f992592bb44908b08e554e55"
}